:020000040800F2
:1000000000000220B9540008B9410008BB410008B3
:10001000BD410008BF410008C141000800000000C8
:10002000000000000000000000000000017D00084A
:10003000C341000800000000A17D0008B173000862
:100040000955000809550008095500080955000818
:100050000955000809550008095500080955000808
:1000600009550008095500080955000809550008F8
:1000700009550008095500080955000809550008E8
:10008000095500080955000809550008000000003E
:1000900000000000000000000000000009550008FA
:1000A00009550008095500080955000809550008B8
:1000B000C541000809550008095500080955000800
:1000C0000955000809550008095500080955000898
:1000D00009550008D5410008095500080000000036
:1000E00009550008095500080955000800000000DE
:1000F000000000000000000000000000095500089A
:1001000000000000095500080955000809550008BD
:1001100000000000000000000000000000000000DF
:100120000955000809550008095500080955000837
:100130000955000800000000000000000000000059
:100140000000000000000000000000000955000849
:100150000955000809550008095500080955000807
:1001600009550008095500080000000000000000C3
:10017000000000000000000000000000000000007F
:100180000000000009550008000000000000000009
:0801900009550008095500089B
:1001A00010B5054C237833B9044B13B10448AFF3B1
:1001B00000800123237010BD2805002000000000EE
:1001C000B8C6000808B5034B1BB103490348AFF399
:1001D000008008BD000000002C050020B8C6000803
:1001E000034613F8012B002AFBD1181A0138704777
:1001F00001F0FF01102A2BDB10F0070F08D010F8D8
:10020000013B013A8B422DD010F0070F42B3F6D1DB
:10021000F0B441EA012141EA014122F007047FF0F4
:1002200000070023F0E80256083C85EA010586EA4B
:10023000010685FA47F5A3FA87F586FA47F6A5FA87
:1002400087F68EB9EED1F0BC01F0FF0102F0070293
:1002500032B110F8013B013A83EA010313B1F8D13E
:100260000020704701387047002D06BF354603381F
:10027000073815F0010F07D1013015F4807F02BF58
:10028000013015F4C03F0130F0BC0138704700BFA9
:1002900081F0004102E000BF83F0004330B54FEA37
:1002A00041044FEA430594EA050F08BF90EA020FA4
:1002B0001FBF54EA000C55EA020C7FEA645C7FEA37
:1002C000655C00F0E2804FEA5454D4EB5555B8BF5A
:1002D0006D420CDD2C4480EA020281EA030382EACB
:1002E000000083EA010180EA020281EA0303362D5D
:1002F00088BF30BD11F0004F4FEA01314FF4801C30
:100300004CEA113102D0404261EB410113F0004F41
:100310004FEA03334CEA133302D0524263EB4303F8
:1003200094EA050F00F0A780A4F10104D5F1200E96
:100330000DDB02FA0EFC22FA05F2801841F10001F1
:1003400003FA0EF2801843FA05F359410EE0A5F1C5
:1003500020050EF1200E012A03FA0EFC28BF4CF0F6
:10036000020C43FA05F3C01851EBE37101F00045AC
:1003700007D54FF0000EDCF1000C7EEB00006EEBB9
:100380000101B1F5801F1BD3B1F5001F0CD3490843
:100390005FEA30004FEA3C0C04F101044FEA44529A
:1003A00012F5800F80F09A80BCF1004F08BF5FEA21
:1003B000500C50F1000041EB045141EA050130BD01
:1003C0005FEA4C0C404141EB0101013C28BFB1F513
:1003D000801FE9D291F0000F04BF01460020B1FA5E
:1003E00081F308BF2033A3F10B03B3F120020CDA31
:1003F0000C3208DD02F1140CC2F10C0201FA0CF00F
:1004000021FA02F10CE002F11402D8BFC2F1200C73
:1004100001FA02F120FA0CFCDCBF41EA0C01904029
:10042000E41AA2BF01EB0451294330BD6FEA040472
:100430001F3C1CDA0C340EDC04F11404C4F120025D
:1004400020FA04F001FA02F340EA030021FA04F36F
:1004500045EA030130BDC4F10C04C4F1200220FAC6
:1004600002F001FA04F340EA0300294630BD21FA04
:1004700004F0294630BD94F0000F83F4801306BFCA
:1004800081F480110134013D4EE77FEA645C18BFBE
:100490007FEA655C29D094EA050F08BF90EA020F55
:1004A00005D054EA000C04BF1946104630BD91EA4D
:1004B000030F1EBF0021002030BD5FEA545C05D150
:1004C0004000494128BF41F0004130BD14F580048F
:1004D0003CBF01F5801130BD01F0004545F0FE4103
:1004E00041F470014FF0000030BD7FEA645C1ABF38
:1004F000194610467FEA655C1CBF0B46024650EA6F
:10050000013406BF52EA033591EA030F41F400219A
:1005100030BD00BF90F0000F04BF0021704730B520
:100520004FF4806404F132044FF000054FF00001F5
:1005300050E700BF90F0000F04BF0021704730B5B6
:100540004FF4806404F1320410F0004548BF40428B
:100550004FF000013EE700BF42004FEAE2014FEAE0
:1005600031014FEA02701FBF12F07F4393F07F4FBB
:1005700081F06051704732F07F4208BF704793F0BE
:100580007F4F04BF41F40021704730B54FF46074D1
:1005900001F0004521F000411CE700BF50EA0102D4
:1005A00008BF704730B54FF000050AE050EA01027D
:1005B00008BF704730B511F0004502D5404261EBED
:1005C00041014FF4806404F132045FEA915C3FF42E
:1005D000D8AE4FF003025FEADC0C18BF03325FEACB
:1005E000DC0C18BF033202EBDC02C2F1200300FA7C
:1005F00003FC20FA02F001FA03FE40EA0E0021FAA1
:1006000002F11444BDE600BF70B54FF0FF0C4CF48E
:10061000E06C1CEA11541DBF1CEA135594EA0C0F40
:1006200095EA0C0F00F0DEF82C4481EA030621EA7B
:100630004C5123EA4C5350EA013518BF52EA0335B6
:1006400041F4801143F4801338D0A0FB02CE4FF068
:100650000005E1FB02E506F00042E0FB03E54FF098
:100660000006E1FB03569CF0000F18BF4EF0010E90
:10067000A4F1FF04B6F5007F64F5407404D25FEA8C
:100680004E0E6D4146EB060642EAC62141EA55513F
:100690004FEAC52040EA5E504FEACE2EB4F1FD0C81
:1006A00088BFBCF5E06F1ED8BEF1004F08BF5FEAFF
:1006B000500E50F1000041EB045170BD06F00046B1
:1006C00046EA010140EA020081EA0301B4EB5C045E
:1006D000C2BFD4EB0C0541EA045170BD41F4801156
:1006E0004FF0000E013C00F3AB8014F1360FDEBF7B
:1006F000002001F0004170BDC4F10004203C35DA57
:100700000C341BDC04F11404C4F1200500FA05F3D9
:1007100020FA04F001FA05F240EA020001F000427A
:1007200021F0004110EBD37021FA04F642EB0601F0
:100730005EEA430E08BF20EAD37070BDC4F10C041A
:10074000C4F1200500FA04F320FA05F001FA04F2DE
:1007500040EA020001F0004110EBD37041F10001CA
:100760005EEA430E08BF20EAD37070BDC4F12005D5
:1007700000FA05F24EEA020E20FA04F301FA05F23D
:1007800043EA020321FA04F001F0004121FA04F2E5
:1007900020EA020000EBD3705EEA430E08BF20EAB5
:1007A000D37070BD94F0000F0FD101F000464000EF
:1007B00041EB010111F4801F08BF013CF7D041EA71
:1007C000060195F0000F18BF704703F00046520075
:1007D00043EB030313F4801F08BF013DF7D043EA46
:1007E0000603704794EA0C0F0CEA135518BF95EAFC
:1007F0000C0F0CD050EA410618BF52EA4306D1D183
:1008000081EA030101F000414FF0000070BD50EAA1
:10081000410606BF1046194652EA430619D094EA2B
:100820000C0F02D150EA013613D195EA0C0F05D115
:1008300052EA03361CBF104619460AD181EA030169
:1008400001F0004141F0FE4141F470014FF0000021
:1008500070BD41F0FE4141F4780170BD70B54FF0BC
:10086000FF0C4CF4E06C1CEA11541DBF1CEA13553C
:1008700094EA0C0F95EA0C0F00F0A7F8A4EB05041E
:1008800081EA030E52EA03354FEA013100F0888015
:100890004FEA03334FF0805545EA131343EA1263DE
:1008A0004FEA022245EA111545EA10654FEA002693
:1008B0000EF000419D4208BF964244F1FD0404F54C
:1008C000407402D25B084FEA3202B61A65EB0305A8
:1008D0005B084FEA32024FF480104FF4002CB6EB65
:1008E000020E75EB030E22BFB61A754640EA0C00E5
:1008F0005B084FEA3202B6EB020E75EB030E22BF25
:10090000B61A754640EA5C005B084FEA3202B6EB65
:10091000020E75EB030E22BFB61A754640EA9C0024
:100920005B084FEA3202B6EB020E75EB030E22BFF4
:10093000B61A754640EADC0055EA060E18D04FEAB2
:10094000051545EA16754FEA06164FEAC30343EA52
:1009500052734FEAC2025FEA1C1CC0D111F4801F1F
:100960000BD141EA00014FF000004FF0004CB6E718
:1009700011F4801F04BF01430020B4F1FD0C88BFB7
:10098000BCF5E06F3FF6AFAEB5EB030C04BFB6EBC2
:10099000020C5FEA500C50F1000041EB045170BDB5
:1009A0000EF0004E4EEA113114EB5C04C2BFD4EBE2
:1009B0000C0541EA045170BD41F480114FF0000E66
:1009C000013C90E645EA060E8DE60CEA135594EAE2
:1009D0000C0F08BF95EA0C0F3FF43BAF94EA0C0FE5
:1009E0000AD150EA01347FF434AF95EA0C0F7FF45A
:1009F00025AF104619462CE795EA0C0F06D152EAAE
:100A000003353FF4FDAE1046194622E750EA410691
:100A100018BF52EA43067FF4C5AE50EA41047FF4A2
:100A20000DAF52EA43057FF4EBAE12E74FF0FF3C07
:100A300006E000BF4FF0010C02E000BF4FF0010CD8
:100A40004DF804CD4FEA410C7FEA6C5C4FEA430C51
:100A500018BF7FEA6C5C1BD001B050EA410C0CBFA0
:100A600052EA430C91EA030F02BF90EA020F002002
:100A7000704710F1000F91EA030F58BF994208BF69
:100A800090422CBFD8176FEAE37040F00100704726
:100A90004FEA410C7FEA6C5C02D150EA013C07D17D
:100AA0004FEA430C7FEA6C5CD6D152EA033CD3D0C8
:100AB0005DF8040B704700BF8446104662468C46C2
:100AC0001946634600E000BF01B5FFF7B7FF0028F5
:100AD00048BF10F1000F01BD4DF808EDFFF7F4FF1E
:100AE0000CBF012000205DF808FB00BF4DF808EDA9
:100AF000FFF7EAFF34BF012000205DF808FB00BFCC
:100B00004DF808EDFFF7E0FF94BF012000205DF8ED
:100B100008FB00BF4DF808EDFFF7CEFF94BF0120A2
:100B200000205DF808FB00BF4DF808EDFFF7C4FF9B
:100B300034BF012000205DF808FB00BF4FEA4102EE
:100B400012F5001215D211D56FF47873B3EB62521F
:100B500012D94FEAC12343F0004343EA505311F046
:100B6000004F23FA02F018BF404270474FF00000D8
:100B7000704750EA013005D111F0004008BF6FF016
:100B8000004070474FF00000704700BF4A0011D28C
:100B900012F5001211D20DD56FF47873B3EB6252D7
:100BA0000ED44FEAC12343F0004343EA505323FAE3
:100BB00002F070474FF00000704750EA013002D158
:100BC0004FF0FF3070474FF0000070474FEA41028E
:100BD000B2F1E04324BFB3F5001CDCF1FE5C0DD99B
:100BE00001F0004C4FEAC0024CEA5070B2F1004FE5
:100BF00040EB830008BF20F00100704711F0804FE8
:100C000021D113F13872BCBF01F00040704741F4AC
:100C100080114FEA5252C2F11802C2F1200C10FAB0
:100C20000CF320FA02F018BF40F001004FEAC12394
:100C30004FEAD32303FA0CFC40EA0C0023FA02F338
:100C40004FEA4303CCE77FEA625307D150EA01330E
:100C50001EBF4FF0FE4040F44000704701F00040DE
:100C600040F0FE4040F40000704700BF53B94AB95D
:100C7000002908BF00281CBF4FF0FF314FF0FF30A4
:100C800000F088B9ADF1080C6DE904CE00F006F86B
:100C9000DDF804E0DDE9022304B070472DE9F047F8
:100CA000089D8E4604468846002B4AD18A42174644
:100CB00062D9B2FA82F64EB1C6F1200301FA06F803
:100CC00020FA03F3B74043EA0808B4404FEA174E4E
:100CD0001FFA87FCB8FBFEF1230C0EFB118843EAD8
:100CE000084301FB0CF29A4209D9FB1801F1FF30CD
:100CF00080F0EA809A4240F2E78002393B449A1A37
:100D0000A3B2B2FBFEF00EFB102243EA024300FB4B
:100D10000CFC9C4509D9FB1800F1FF3280F0D6800D
:100D20009C4540F2D3803B44023840EA0140A3EBAB
:100D30000C0300211DB1F3400022C5E90032BDE8DB
:100D4000F0878B4205D90DB1C5E9000100210846A5
:100D5000F5E7B3FA83F1002946D1734502D3824205
:100D600000F20581841A6EEB030201209046002DEB
:100D7000E5D0C5E90048E2E7002A00F09080B2FA29
:100D800082F6002E40F0A4808A1A030C4FEA174E18
:100D900080B2BCB20121B2FBFEFC0EFB1C2243EA76
:100DA000024304FB0CF29A4207D9FB180CF1FF38FE
:100DB00002D29A4200F2E080C4469B1AB3FBFEF2D4
:100DC0000EFB123340EA034302FB04F49C4207D9B2
:100DD000FB1802F1FF3002D29C4200F2CA800246A8
:100DE0001B1B42EA0C40A5E7C1F120068B4022FA0A
:100DF00006F71F430EFA01F420FA06F32EFA06FE58
:100E00004FEA1749234300FA01F81FFA87FCBEFB9B
:100E1000F9F01C0C09FB10EE44EA0E4400FB0CFE3A
:100E2000A64502FA01F209D93C1900F1FF3A80F017
:100E30009C80A64540F2998002383C44A4EB0E0405
:100E40001FFA83FEB4FBF9F309FB13444EEA044492
:100E500003FB0CFCA44508D93C1903F1FF3E80F0CC
:100E60008280A4457FD9023B3C4443EA0040A4EB86
:100E70000C04A0FB02EC64457346E14662D35FD0EC
:100E80005DB1B8EB030264EB090404FA06F622FA3A
:100E900001F31E43CC40C5E9006400214FE7B1FBDC
:100EA000F2FC010C41EA0E4180B240EA01423B46AD
:100EB00038463C46B846BE462026B1FBF7F1A2EBC9
:100EC000080241EA0C4166E7014618E710462CE7A4
:100ED000C6F120022EFA02F3B740B14020FA02F226
:100EE0004FEA174E0A43B3FBFEF8BCB20EFB1833B1
:100EF000110C41EA034108FB04F9B04089454FEA6F
:100F0000104380B23ED9791808F1FF3C01D28945DF
:100F10001FD8A1EB0901B1FBFEF909FB04F80EFB98
:100F2000191192B242EA0142424529D2BA1809F196
:100F3000FF31C4D24245C2D2A9F102013A44BEE710
:100F4000F0459DD2BEEB02036CEB070C0138E14685
:100F500096E7A7EB09094944A8F1020CB1FBFEF999
:100F600009FB04F8DBE773467FE7504666E708466F
:100F7000FDE63B44023A33E7ACF1020C3B441CE78C
:100F800049469CE7A1EB0901C446B1FBFEF909FB08
:100F900004F8C4E7704700BF00B583B003460022E1
:100FA0008DF80020ADF80220084A106848B10022F0
:100FB000694606F092FB20B100238DF80030ADF8B1
:100FC0000230009803B05DF804FB00BF980D0020CC
:100FD00000B583B0062300930523044A126800215C
:100FE000622002F0E9F803B05DF804FB5C05002024
:100FF0001F4B18887F2827D930B4C0F1FF0CBCF1F3
:10100000000F2EDD00231A461A4C1B4DA1182A444E
:10101000125C81F880230133DBB21A466345F5DBAD
:10102000C343DBB2591EA1EB0C01134A1144134810
:10103000184411F8012F00F8012F5A1CD3B212F0F6
:10104000800FF6D030BC7047431E0B490B440B4A4F
:101050007F31084413F8011F02F8011F8342F9D1C0
:101060007047C243D3B212F0800FEBD1DAE700BF72
:101070005A05002048060020D8CF0008C7090020E4
:1010800010B582B0174B1B788E2B1ED8154C2078CC
:10109000154B1B7803EBC303144A02EB8303009345
:1010A000122310222C21C0F17F0001F0D5FF2278FD
:1010B0000F4BC2F17F011970C2F18F029A702C227E
:1010C0005A703E22DA7002B010BD08F097FB094B4F
:1010D00083FB0023A3EBE07303EB4303C01A024B33
:1010E0001870D3E75805002059050020E8D0000803
:1010F000540500205655555500B583B0064B187859
:10110000064B0093082310220921C0F17F0001F053
:10111000A3FF03B05DF804FB51050020D8D0000800
:1011200000B583B0254B1888FFF704FA244BD3E9A8
:101130000023FFF769FA0022224BFFF78FFBFFF72E
:1011400045FDFFF709FA41EC100B0AF091FA51EC5A
:10115000100B00221C4BFFF757FAFFF717FDC0B228
:101160001A4B18701A4B1B78EBB91A4B1B7813F0FB
:10117000010F0CBF184B194B0093122310222C2186
:10118000002001F069FF164B00221A7010229A709D
:101190000E4A1278C2F12C015970C2F13E02DA7087
:1011A00003B05DF804FB0F4B009312231022C0F133
:1011B0002C01002001F050FFE5E700BF4E050020A4
:1011C000C0D1000800408F4000003C404C0500208A
:1011D000500500205105002054D1000878D10008A6
:1011E000480500209CD1000882780B789A4234D9B7
:1011F00002788B789A4232D2C2784B789A4230D9B0
:101200004278CB789A4201D30020704710B584B061
:1012100001F040FE0823144A18211C2001F0B4FFFD
:101220000623124A2821182001F0AEFF062300935E
:1012300003230F4A126828213C2001F0BDFF01F072
:10124000F1FD32242046FFF7A7FEC0B20428F9D1F1
:1012500000F086FB012004B010BD00207047002084
:1012600070470020704700BFDCC60008E8C60008D1
:101270005C050020264B1A780132D2B21A7025493B
:101280000B780133DBB20B70042A06D9204A002107
:10129000117021490A6801320A60204A118801311F
:1012A00089B211801E4802780132D2B20270FF2941
:1012B00002D91A49002008808F2A02D9184A002131
:1012C0001170012B0AD9134B00221A70154B1B7891
:1012D0000133DBB2C72B06D8124A1370124B1B78AE
:1012E000012B04D070470F4B00221A70F6E70F4B0A
:1012F0001B881E339BB2B3F57A7F02D20B4A138050
:1013000070470023094A1380074A1370EAE700BFB9
:1013100045050020440500205C0500205A050020FA
:101320005805002051050020500500204E050020E2
:10133000F0B583B01A4F1B4E1B4D18E0FFF79AFF14
:1013400001F0A8FDFFF744FEFFF752FEFFF798FEFD
:10135000FFF7D2FEFFF7E4FE01F064FD31462846B8
:10136000FFF742FF012818D0282006F0AAF8002035
:10137000FFF712FE10F0FF04E0D000F0F1FAE31ED8
:10138000DBB2012B09D9601EC0B20128D6D83B7848
:10139000002BD3D101233B70D0E7002003B0F0BD78
:1013A0005005002054050020480500200023084A6D
:1013B0001370084A1370084A1370084A1380084AC9
:1013C0001360084A1380084A1370084A1370704764
:1013D0004C05002051050020580500205A0500202A
:1013E0005C0500204E050020500500205905002016
:1013F00030B583B0194B1B684BB1184D0024234600
:10140000224601A9286806F068F90028F7D0FFF7FE
:10141000CDFF01F03FFD0823114A1021202001F0EB
:10142000B3FE06230F4A2021082001F0ADFE06235B
:101430000D4A2821082001F0A7FE01F0F3FC322418
:101440002046FFF7A9FD0190C0B20428F8D100F0B2
:1014500087FAFFF76DFF03B030BD00BF980D002085
:10146000F0C60008FCC600080CC7000800B583B031
:10147000034600228DF80020ADF80220084A1068CB
:1014800048B10022694606F028F920B100238DF802
:101490000030ADF80230009803B05DF804FB00BFE7
:1014A000980D0020084B1B686BB130B583B0064D1A
:1014B00000242346224601A9286806F00EF90028D8
:1014C000F7D003B030BD7047980D00204FEAC20C32
:1014D0000CF1FF33074A134401EB0010064901EBFE
:1014E000C001D01D604413F8012F01F8012F834281
:1014F000F9D17047C8D1000847060020074800F11D
:101500000F028F300021A2F1100303F8011F934254
:10151000FBD110328242F6D1704700BF6405002033
:101520002DE9F04383B0DFF840800027B9464546F7
:101530004946FEB2CCB215F8012F21463046FFF7DE
:10154000C5FF611C49B21029F4D1013708F1100818
:10155000082FECD10020009040238022014601F0AA
:1015600028FF03B0BDE8F0836305002038B503F021
:10157000F3FF08F015F908F041F9044608F03EF9C8
:10158000634204F0070403F0070358BF5C42434280
:1015900000F00F0003F00F0358BF5842114B03EB4C
:1015A00004131B5CC3B10F4D08F028F9044608F082
:1015B00025F9634204F0070403F0070358BF5C42B7
:1015C000434200F00F0003F00F0358BF584205EBF1
:1015D00004131B5C002BE7D1024B03EB0413022224
:1015E0001A5438BD6405002070B5044690F80262B4
:1015F00090F8035290F80432032B05D8DFE803F08B
:101600000246494C013DEDB206F00F0605F0070514
:101610003D4B03EB05139B5D002B40D194F800324A
:1016200054F8233004221A7094F8003201335A42DD
:1016300003F07F0302F07F0258BF534284F8003268
:1016400006EB0511304A114444F8231002EB051251
:101650000323935594F8013254F8233000221A7072
:1016600094F801320133D21A03F07F0302F07F02B3
:1016700058BF534284F8013254F8233005221A70BF
:1016800084F8026284F80352012070BD0136F6B27C
:10169000BAE70135EDB2B7E7013EF6B2B4E7022B87
:1016A00001D00020F1E794F8003254F823300422EE
:1016B0001A7094F8003201335A4203F07F0302F0AB
:1016C0007F0258BF534284F8003206EB05110E4AE0
:1016D000114444F8231002EB051203239355FFF73E
:1016E00045FF0A4A137801331370094B1B78322BDC
:1016F00003D9A3EBD303064A137084F8026284F87B
:1017000003520120C1E700BF6405002060050020EE
:10171000000000202DE9F0438BB0044690F8002231
:1017200090F80132D31A022B35DC04275D4D5E4E52
:1017300094F802320133DBB2102B28BF002384F867
:10174000023254F822301F7094F8003201335A42AA
:1017500003F07F0302F07F0258BF534284F8003247
:1017600094F8032294F8020200EB0211294444F891
:10177000231005EB021203231354FFF7D1FE01F0EF
:1017800051FB307805F09DFE94F8002294F8013268
:10179000D31A022BCCDD94F804820027DFF80891DD
:1017A00042E0BDF9026000F0DBF8EB1EDBB2012B7A
:1017B00074D9022D13D194F80432724206F0030654
:1017C00002F0030258BF564233445A4203F0030367
:1017D00002F0030258BF534284F804322BE0012D7B
:1017E00029D194F804320433724206F0030602F061
:1017F000030258BF56429B1B5A4203F0030302F0F8
:10180000030258BF534284F8043214E084F804827F
:101810002046FFF7E9FEB0B1FFF782FE01F002FBC0
:1018200099F8000005F04DFE3846FFF71FFE0090C6
:1018300010F0FF05B5D12046FFF7D6FE0028E5D011
:1018400094F80482E8E701F025FB0823174A0A21EF
:10185000142001F099FC164B1A78164902A808F0DA
:1018600089F908230DEB03021E21084601F08CFCC8
:101870000623114A2D210F2001F086FC01F0D2FA37
:1018800032242046FFF7F2FDC0B2C31EDBB2012BAB
:1018900004D90028F5D000F063F8F2E70BB0BDE8FA
:1018A000F08300BF640500200000002020C700086E
:1018B000600500202CC7000838C7000810B5ADF53A
:1018C000027DFFF7EFFD0024204B1C70204BC82247
:1018D0001A70FFF713FE03F03FFE07F061FF8DF86B
:1018E00000428DF8014207F089FF231A00F00F042F
:1018F00003F00F0358BF5C428DF8024207F07EFFF1
:10190000434200F0070003F0070358BF58428DF828
:10191000030201238DF80432C0B2E4B204EB0012DA
:101920000C4B1A44009203EB001303221A55FFF7E5
:101930001DFEFFF7F5FD01F075FA6846FFF7EAFEB8
:10194000FFF7B0FD0DF5027D10BD00BF6005002062
:10195000000000206405002008B503F063FA08BD0C
:1019600008B503F0F9FD084B1860084B1B7803B964
:1019700008BD064B00221A70054B1878054B1870ED
:1019800001F046FAF4E700BF4406002040060020BC
:101990000B0400200A04002008B503F0DDFD0D4B08
:1019A0001B7853B90C4B1B68C01A0C4B1B884FF4A7
:1019B0007A7202FB03F3984200D208BD084B1978F3
:1019C000084A117000201870024B01221A7001F0B1
:1019D0001FFAF2E740060020440600200804002019
:1019E0000A0400200B04002000B583B000228DF80B
:1019F0000020ADF80220134669460448006805F04F
:101A00006CFE009803B05DF804FB00BF980D002049
:101A10008388C28913441BB28380B0F90A209342A1
:101A200005DD00238380022A14DDC3801DE0002B26
:101A30000BDB022A0EDD022BF7DD911E8B421ADB37
:101A4000C2F102010B441BB206E08280022A01DDD2
:101A50001346F2E7B0F90430C380002B0EDBB0F977
:101A60000630022BC4BF0223C380B0F90630934274
:101A7000C8BFC28070470123C380F6E70023C3803C
:101A8000F3E730B583B00446FFF7AEFF01900514CD
:101A9000C3B2013B032B2CD8DFE803F0211813025B
:101AA000FFF75EFFB4F90420236803EB02135B68C1
:101AB00023B198470123237403B030BD002363741E
:101AC000F8E7FFF74DFF00236374F5E7FFF748FFE2
:101AD000E5812046FFF79CFF01232374ECE7FFF725
:101AE0003FFF6D42E5812046FFF792FF01232374FB
:101AF000E2E70023E381DFE7B0F90A30022B21DDC2
:101B000030B52DED028B85B0B0F90420013207EE1F
:101B1000902AB8EEE77A0133DBB207EE903AF8EE9E
:101B2000677AC7EE276ADFED497A66EEA77AB1EEEB
:101B3000087AF4EEC77AF1EE10FA09D5444B83ED3A
:101B4000007A11E00023434A1360414A1360704752
:101B50009FED417AF4EEC77AF1EE10FA3C4BD2BF1A
:101B6000C3ED007A3D4A1A60394BD3ED007A394B08
:101B700093ED007A37EEC78ADFED396AB4EEE68A74
:101B8000F1EE10FA3EDD17EE100AFEF7E5FC00223A
:101B9000344BFEF783FB04460D4618EE100AFEF7A1
:101BA000DBFC0022304BFEF72FFD02460B462046A1
:101BB0002946FEF773FBFFF709F807EE900A254C5C
:101BC000C4ED007A3C237C220321104601F04AFB3D
:101BD000D4ED007AB6EE007A77EE877AFCEEE77AFB
:101BE000CDED037A9DF80C3001220092934238BF6C
:101BF0001346042203217B2001F0DBFB05B0BDEC82
:101C0000028B30BDDFED196AB4EEE68AF1EE10FA10
:101C1000D5D517EE100AFEF79FFC0022114BFEF7F8
:101C20003BFB04460D4618EE100AFEF795FC002219
:101C30000D4BFEF7E9FC02460B4620462946FEF70F
:101C40002DFBFEF7C3FF07EE900AB8E700006842DD
:101C50002C06002030060020000060420000604298
:101C60000000803D0000B03F0000E03F000080BD6C
:101C7000F0B583B005460E4614461F464FF0000CE3
:101C8000CDF800C001F095FBA21E9DF82030642B1A
:101C900028BF642303FB02F20A4B83FB0213D21713
:101CA000C2EB631212F0FF0201D103B0F0BDBB1E04
:101CB000711C681C01240094DBB209B200B201F06F
:101CC00078FBF2E71F85EB5108B50A4A1368013328
:101CD000136003F041FC084B1B68C31AB3F57A7F0D
:101CE00007D3044B1968054A116000221A60024BA1
:101CF000186008BD3C06002038060020340600208D
:101D00000FB410B586B008AB13F8042B0593042A62
:101D100065D8DFE802F00321253C5200314B1A68F8
:101D2000314903A807F026FF062303AA002108462D
:101D300001F02AFA2D4B1B784BB901F073F8FFF72D
:101D4000C3FF002006B0BDE8104004B07047052175
:101D50005A2002F061FBF0E701F09CF80020F1E767
:101D600005990B1D059308688C6801F11003059314
:101D7000CB68002B08BF0823DBB22246B1F9041060
:101D800000B201F001FA2046FEF72AFADAE7059BD5
:101D90001A1D0592186859689A6803F11004059491
:101DA000DB6801335B1A0132121ADBB2D2B209B21C
:101DB00000B201F011F90020C4E705990B1D05934D
:101DC000086801F1100305930B7B0A7AB1F904103E
:101DD0000024009400B201F0ECFA2046B2E70020A3
:101DE000B0E700BF3406002048C70008E60E002018
:101DF00070B592B005460E461446137B082B54D896
:101E0000DFE803F005171E262D34423B4800A36887
:101E100093F90020216802A807F0ACFE0823009384
:101E20006B44324629460220FFF76AFFC0B212B067
:101E300070BDA3681A78216802A807F09BFEEDE741
:101E4000A368B3F90020216802A807F093FEE5E734
:101E5000A3681A88216802A807F08CFEDEE7A36851
:101E60001A68216802A807F085FED7E7A3681A68F8
:101E7000216802A807F07EFED0E7A3681A782168DF
:101E800002A807F077FEC9E7A268216802A807F058
:101E900071FEC3E7A3681868FEF75EFB02460B46B7
:101EA000216802A807F066FEB8E7A268216802A8C8
:101EB00007F060FEB2E770B5044601234374037473
:101EC0008380C3800023038183814381C3810568AC
:101ED0002B681B782E2B15D000262A46314630461B
:101EE000FFF786FF6873638901331BB263811901B1
:101EF000226802EB0315525812782E2AEDD1013BCD
:101F0000638170BD0023FAE7F8B52DED028B05461D
:101F10008288C388D21A12B20281B0F90C309A4278
:101F20000BD0D31A03EB83039B0007EE903AF8EE35
:101F3000E77A404BC3ED007A82813E4BD3ED007AC5
:101F4000F5EE407AF1EE10FA26D09FED3B8A38EE9E
:101F5000678A9FED3A7AB4EEC78AF1EE10FA1FDD78
:101F600017EE900AFEF7F8FA0022354BFEF796F9C5
:101F700006460F4618EE100AFEF7EEFA0022314B25
:101F8000FEF742FB02460B4630463946FEF786F91D
:101F9000FEF71CFE274B18604FF0FF34254E26E05D
:101FA0009FED297AB4EEC78AF1EE10FA1AD517EE32
:101FB000900AFEF7D1FA0022214BFEF76DF9064692
:101FC0000F4618EE100AFEF7C7FA00221D4BFEF767
:101FD0001BFB02460B4630463946FEF75FF9FEF71B
:101FE000F5FDD7E70020D5E70134042C1FD0B5F963
:101FF00008201219F8D4B5F90A309A4217DC2F6874
:1020000007EB0217D6ED007AFDEEE77A17EE901A8D
:10201000043104EB840301EB8301787BC0F11000F1
:102020003A4609B28000FFF7E3FE7873DCE7BDECC7
:10203000028BF8BD28060020000000000000803D53
:102040000000B03F0000E03F000080BD0000000045
:1020500070B52DED068B82B0037C002B00F0608202
:1020600000230374B0F90420036803EB02135B7BC5
:10207000DB001A1D09EE102AC3F17C035B1007EE8A
:10208000903AF8EEE78ADA4BC3ED008AB0F90630F1
:1020900003EB83039B00023307EE903AB8EEE78A26
:1020A000D44B83ED008AB8EEC99A39EE289AF7EE40
:1020B000007A39EE679AD04B83ED009AB3EE04AA0A
:1020C00038EE0AAA3AEE67AACC4B83ED00AACC4BB5
:1020D000D3ED009A78EEE97A17EE900AFEF73CFA13
:1020E000C1A3D3E90023FEF78FFA04460D4618EE8C
:1020F000900AFEF731FA02460B4620462946FEF7C3
:10210000CDF8FEF763FD08EE900ABE4B1860BE4B9B
:10211000D3ED007A78EE677A17EE900AFEF71CFA94
:10212000B1A3D3E90023FEF76FFA04460D4618EE7B
:10213000100AFEF711FA02460B4620462946FEF722
:10214000ADF8FEF743FDB14B1860B14BD3ED007A0B
:1021500079EE677A17EE900AFEF7FEF9A2A3D3E9AB
:102160000023FEF751FA04460D4619EE100AFEF759
:10217000F3F902460B4620462946FEF78FF8FEF794
:1021800025FDA44B1860A44BD3ED007A7AEE677A54
:1021900017EE900AFEF7E0F993A3D3E90023FEF7C8
:1021A00033FA04460D461AEE100AFEF7D5F9024638
:1021B0000B4620462946FEF771F8FEF707FD974BC0
:1021C00018600223964A1370964A1370964A137049
:1021D000964A1370F4EE689AF1EE10FA00F0568207
:1021E000894B93ED008A894BD3ED007AF4EE487A5F
:1021F000F1EE10FA21D18B4A1378013B13707D4B1D
:10220000D3ED008A78EEC87A17EE900AFEF7A4F9AB
:1022100075A3D3E90023FEF7F7F904460D4618EE3F
:10222000900AFEF799F902460B4620462946FEF72A
:1022300035F8FEF7CBFC754B1860754BD3ED00AA53
:10224000744BD3ED007AF4EE6A7AF1EE10FA24D1F1
:10225000754A1378591E1170002B00F07981664B76
:10226000D3ED008A78EEEA7A17EE900AFEF774F959
:102270005DA3D3E90023FEF7C7F904460D4618EE27
:10228000900AFEF769F902460B4620462946FEF7FA
:1022900005F8FEF79BFC5F4B18605F4B93ED00AABF
:1022A0005E4BD3ED007AF4EE4A7AF1EE10FA24D1C7
:1022B0005E4A1378591E1170002B00F04E814F4B6F
:1022C000D3ED008A78EECA7A17EE900AFEF744F949
:1022D00045A3D3E90023FEF797F904460D4618EE0F
:1022E000900AFEF739F902460B4620462946FDF7CB
:1022F000D5FFFEF76BFC494B1860424BD3ED008ACB
:1023000038EEE99ADFED4A7AB4EEE79AF1EE10FA88
:1023100040F3288119EE900AFEF71EF90022454B82
:10232000FDF7BCFF04460D4619EE100AFEF714F93E
:102330000022414BFEF768F902460B46204629462B
:10234000FDF7ACFFFEF742FC08EE900A2C4BC3ED04
:10235000008A2E4B93ED009A79EE489ADFED347A9D
:10236000F4EEE79AF1EE10FA40F3218118EE100A2C
:10237000FEF7F2F800222F4BFDF790FF04460D46C2
:1023800019EE900AFEF7E8F800222B4BFEF73CF915
:1023900002460B4620462946FDF780FFFEF716FC55
:1023A00009EE100A184B83ED009A1A4BD3ED009AF0
:1023B00039EEEA8ADFED1E7AB4EEE78AF1EE10FA22
:1023C00040F31A811AEE900AFEF7C6F80022194B64
:1023D000FDF764FF04460D4618EE100AFEF7BCF840
:1023E00000222BE0AFF30080333333333333C33F6A
:1023F00024060020200600201C06002018060020CD
:1024000014060020100600200C06002008060020FC
:102410000406002000060020FC050020F80500202E
:10242000F4050020F3050020F2050020F10500204E
:102430000000803D0000B03F0000E03FB24BFEF7DF
:10244000E3F802460B4620462946FDF727FFFEF734
:10245000BDFB09EE900AAD4BC3ED009AAC4B93ED7A
:10246000008A78EE4AAADFEDAB7AF4EEE7AAF1EE45
:1024700010FA40F3E6801AEE100AFEF76DF800221B
:10248000A54BFDF70BFF04460D461AEE900AFEF72A
:1024900063F800229C4BFEF7B7F802460B46204635
:1024A0002946FDF7FBFEFEF791FB08EE100A9B4B59
:1024B00083ED008A19EE900AFEF74EF80022924B47
:1024C000FDF7ECFEFEF73AFB064619EE100AFEF7A2
:1024D00043F800228C4BFDF7E1FEFEF72FFB05468B
:1024E00018EE900AFEF738F80022874BFDF7D6FE6B
:1024F000FEF724FB044618EE100AFEF72DF8002222
:10250000814BFDF7CBFEFEF719FB009033462A46C0
:1025100021460320FFF7F4FB02B0BDEC068B70BD33
:102520007F4BD3ED009A7F4BD3ED007AF4EE697ABE
:10253000F1EE10FA40F0CB807B4A1378591E1170EF
:10254000002B40F0A680794B1A68764B1A60BEE0EB
:10255000774B1A68774B1A609FE6774B1A686C4B7B
:102560001A60CAE6DFED757AB4EEE79AF1EE10FA7A
:102570007FF5ECAE19EE900AFDF7EEFF0022664BF8
:10258000FDF78AFE04460D4619EE100AFDF7E4FF3A
:1025900000225D4BFEF738F802460B4620462946DE
:1025A000FDF77CFEFEF712FB08EE900ACEE6DFEDAB
:1025B000637AF4EEE79AF1EE10FA7FF5F3AE18EED7
:1025C000100AFDF7C9FF0022534BFDF765FE0446D4
:1025D0000D4619EE900AFDF7BFFF00224A4BFEF7A9
:1025E00013F802460B4620462946FDF757FEFEF734
:1025F000EDFA09EE100AD5E6DFED507AB4EEE78A7F
:10260000F1EE10FA7FF527AF1AEE900AFDF7A4FF5E
:102610000022414BFDF740FE04460D4618EE100A1D
:10262000FDF79AFF0022384BFDF7EEFF02460B46FE
:1026300020462946FDF732FEFEF7C8FA09EE900A59
:1026400009E7DFED3E7AF4EEE7AAF1EE10FA7FF546
:102650002EAF1AEE100AFDF77FFF00222E4BFDF77A
:102660001BFE04460D461AEE900AFDF775FF002288
:10267000254BFDF7C9FF02460B4620462946FDF7CC
:102680000DFEFEF7A3FA08EE100A10E7264B012212
:102690001A70264B93ED008A78EE697A17EE900A4D
:1026A000FDF75AFF16A3D3E90023FDF7ADFF04465B
:1026B0000D4618EE100AFDF74FFF02460B46204666
:1026C0002946FDF7EBFDFEF781FA164B18601C4B0F
:1026D00093ED008A1B4BD3ED007AF4EE487AF1EECD
:1026E00010FA7FF4AAAD184A1378591E1170002B06
:1026F0007FF485AD154B1A68124B1A609DE500BF3B
:10270000333333333333C33F0000E03F040600204C
:10271000F80500200000803D0000B03FFC050020CF
:102720001406002010060020F405002024060020D6
:102730001C0600200006002018060020000080BDB6
:102740000C06002008060020F305002020060020CB
:10275000F8B50446FFF7AFFBFFF702F9637C4BB314
:10276000154D012700260CE001F08EFE0FE02046FB
:10277000FFF787F900F0FEFE0A2004F0A2FE637C5A
:10278000C3B1FFF709F901F01DFE0028ECD12B7849
:10279000002BECD13846FFF7B3FA2046FFF7B4FB25
:1027A0002046FFF755FC2046FFF7A6F93046FFF715
:1027B000A7FADCE7F8BD00BF4006002008B50248D4
:1027C000FFF7C6FF08BD00BFF403002008B50248AC
:1027D000FFF7BEFF08BD00BF6003002008B5024838
:1027E000FFF7B6FF08BD00BF2C02002008B5024865
:1027F000FFF7AEFF08BD00BF9801002008B50248F2
:10280000FFF7A6FF08BD00BF7400002010B58AB016
:102810000120FFF775FA082400941A4B10220521B5
:102820000220FFF76DFA0094174B202205210220A9
:10283000FFF766FA154B1B7823B90020FFF760FA03
:102840000A2412E0124B1A8812490DEB040007F01B
:1028500091F900940DEB0403302205210220FFF7CB
:102860004FFAEAE7204604F02CFEFFF7BDF802908D
:10287000033800F0FF000128F4D8FFF771F80AB020
:1028800010BD00BF4CC7000858C70008E60E002066
:10289000E40E002064C700082DE9F04389B0334BF3
:1028A0001A78642303FB02F2314B83FB0238904415
:1028B000C8F3C7182F4E14252F4F1DE0FFF750F80F
:1028C000B9F1020F1CBF604204B204EB840242441F
:1028D00012B2642AA8BF642222EAE2725FFA82F886
:1028E000C8EB082087FB0023C017C0EB6310C0B201
:1028F0001E4B187000F08CFA0120FFF701FA082433
:10290000009433462A4605210220FFF7F9F9424692
:102910001A4904A807F02EF9009404AB2A465A215C
:102920000220FFF7EDF9CDF800802346762223211F
:102930000520FFF79DF90020FFF7E2F9FFF754F8B3
:102940005FFA80F9041409F1FF33DBB2012BB5D92A
:10295000A9F103095FFA89F9B9F1010FCCD8FEF7A3
:10296000FFFF00F0F9FD09B0BDE8F0830A04002084
:102970008180808078C700081F85EB5184C70008DC
:102980002DE9F04F8DB0142702240526DFF83081A1
:10299000DFF830A1DFF8309132E0CDF810A0082543
:1029A000009504AB3A465A212046FFF7A9F9B8F83A
:1029B000003089FB0323DBB2642B28BF6423009320
:1029C0002B46762223213046FFF752F90095354BEE
:1029D000302231462046FFF793F90020FFF790F9A7
:1029E000FFF702F8C5B24FEA204B6B1EDBB2012B9A
:1029F00039D9EB1EDBB2012B4CD90A2004F061FD62
:102A00000120FFF77DF908250095274B0022394664
:102A10002046FFF775F90095244B3A46314620468B
:102A2000FFF76EF9B8F80030002BB6D03B2B0FD96A
:102A30001F4AA2FB031251090A46C1EB0111A3EB85
:102A400081039BB253B91B4904A807F093F8A6E78A
:102A50001A46194904A807F08DF8A0E7174904A8F9
:102A600007F088F89BE7FEF77BFF022D1CBFCBF138
:102A700000000FFA80FBB8F800300BEB8B0003442A
:102A8000B3F5967FA8BF4FF4967323EAE373A8F8D3
:102A90000030B2E7FEF764FF00F05EFD0DB0BDE868
:102AA000F08F00BFA8C700088CC700089CC70008AB
:102AB00089888888E4C70008D4C70008F4C70008DC
:102AC000080400204F4646005655555510B58CB0A9
:102AD0000120FFF715F9274B1B888BB13B2B2FD912
:102AE000254AA2FB031251090A46C1EB0111A3EBCF
:102AF00081039BB253BB214904A807F03BF804E0D3
:102B000004AC1F4B0FCB84E80F000824009404ABE7
:102B1000102205210220FFF7F3F80094194B202220
:102B200005210220FFF7ECF80094174B3022052115
:102B30000220FFF7E5F80020FFF7E2F80A240DE095
:102B40001A46124904A807F015F8DEE7104904A850
:102B500007F010F8D9E7204604F0B3FCFEF744FF75
:102B6000033800F0FF000128F5D8FEF7F9FE0CB09D
:102B700010BD00BF0804002089888888D8C70008D5
:102B8000B8C70008FCC700080CC80008C8C7000880
:102B9000E8C7000810B584B00120FFF7B1F8082499
:102BA0000094174B002214210220FFF7A9F800948B
:102BB000144B102205210220FFF7A2F80094124BBB
:102BC000202205210220FFF79BF800940F4B3022B2
:102BD00005210220FFF794F80020FFF791F80A245E
:102BE00002E0204604F06DFCFEF7FEFE033800F024
:102BF000FF000128F5D8FEF7B3FE04B010BD00BFFA
:102C00001CC800082CC800083CC800080CC80008F4
:102C1000F0B589B000F0EAFCC0B1034600F10D0147
:102C2000002211F8010F20B10132202AF9D1224BE4
:102C300003E0013A1E2A0BD80E33204A142103A8C0
:102C400006F062FF1E4F0024022606E01A4BF4E74E
:102C5000194BF2E70A2004F034FC0120FFF750F88A
:102C6000082500953B46224618213046FFF748F8D4
:102C7000009503AB102221463046FFF741F800953E
:102C8000104B202221463046FFF73AF800950E4BB4
:102C9000302221463046FFF733F82046FFF730F860
:102CA000FEF7A2FE033800F0FF000128D2D8FEF79D
:102CB00057FE09B0F0BD00BF48C8000854C800085E
:102CC00060C8000870C800087CC8000870B582B0F1
:102CD000314B1B686BB1314D2F4C314E01E001235C
:102CE000337000231A462946206804F0F6FC0028B9
:102CF000F5D02B4B1B78002B43D000F0CBF80823EA
:102D0000284A00212D2000F03FFA244D0824009489
:102D100004232A881021002000F04EFA224E234678
:102D200032461021202000F02FFA00940223AA78C6
:102D30001021282000F040FA234632461021382086
:102D400000F022FA00940223EA781021402000F0DB
:102D500033FA009402232A792021002000F02CFA73
:102D60002346124A2021102000F00EFA009402237C
:102D70006A792021182000F01FFA00F053F802B001
:102D800070BD00F087F80623094A18210A2000F0D8
:102D9000FBF900F047F8F2E7800D0020E405002081
:102DA000F00500208CC8000894C8000810CC00086A
:102DB00098C8000810B5094C00220121204602F0F5
:102DC00065FF642002F0CEFB01221146204602F08E
:102DD0005DFF642002F0C6FB10BD00BF000402408E
:102DE00000B583B08DF8070000220221064802F0EA
:102DF0004DFF4FF0FF3301220DF10701034803F0AF
:102E000096FB03B05DF804FB000402409C0D00201B
:102E100010B504468120FFF7E3FF2046FFF7E0FFEF
:102E200010BD00002DE9F0412020FFF7D9FF002060
:102E3000FFF7D6FF2120FFF7D3FF0020FFF7D0FFD9
:102E40007F20FFF7CDFF2220FFF7CAFF0020FFF70A
:102E5000C7FF0720FFF7C4FF012202210A4802F042
:102E600015FF0A4C04F58068094F4FF0FF368025A6
:102E700033462A462146384603F059FB8034444500
:102E8000F6D1BDE8F08100BF0004024048060020F2
:102E90009C0D0020074800F17F0200F27F400021D6
:102EA000A2F1800303F8011F9342FBD180328242DA
:102EB000F6D170474806002008B5FFF77BFFAE202B
:102EC000FFF78EFFD520FFF78BFF8020FFF788FFED
:102ED000A820FFF785FF3F20FFF782FFD320FFF7F1
:102EE0007FFF0020FFF77CFF4020FFF779FFA12044
:102EF000FFF776FFC820FFF773FFDA20FFF770FFB8
:102F00001220FFF76DFF8120FFF76AFFCF20FFF748
:102F100067FFD920FFF764FFF120FFF761FFDB2097
:102F2000FFF75EFF3020FFF75BFFA420FFF758FF9D
:102F3000A620FFF755FF8D20FFF752FF1420FFF763
:102F40004FFFAF20FFF74CFFFFF7A4FFFFF76AFF2B
:102F500008BD00002DE9F0435C18A14237DA02EB0E
:102F6000000E01261B4D15E001331BB21A467345B6
:102F70000CDA9BB27F2BF7D8B8F13F0FF4D817F8D3
:102F800002900CEA090907F80290EDE7013109B255
:102F9000A1421CDA02467045F8DA0F460029B8BF94
:102FA000CF1D47F3CF074B4201F0070C03F0070397
:102FB00058BFC3F1000C06FA0CFC6FEA0C0C5FFA68
:102FC0008CFC03461FFA81F805EBC717D1E7BDE873
:102FD000F08300BF480600202DE9F0435C18A142B1
:102FE00035DA02EB000C01261A4D15E001331BB255
:102FF0001A4663450CDA9BB27F2BF7D8B8F13F0F26
:10300000F4D817F802908EEA090907F80290EDE764
:10301000013109B2A1421ADA02466045F8DA0F46D8
:103020000029B8BFCF1D47F3CF074B4201F0070E71
:1030300003F0070358BFC3F1000E06FA0EFE5FFA55
:103040008EFE03461FFA81F805EBC717D3E7BDE8EC
:10305000F08300BF480600202DE9F04F85B00546FB
:103060000E4614461F46FFF775FF013F48BF07375E
:103070004FEAE70B3146002EB8BFF11D724206F051
:10308000070302F0070258BF534203F10809F60F85
:10309000C6EBE102019208BF9946C9F1080A002770
:1030A000BE460E9BE31802930E9BEB1A0393384621
:1030B0005E4624E0013101330132634519D0C7185F
:1030C0007F2FF7D8B8F1070F07D81F7807FA09F74D
:1030D00092F800B047EA0B071770BEF1070FE9D866
:1030E0001F7847FA0AF791F800B047EA0B070F700C
:1030F000E0E7009F0137FFB23846B7421ADC002CE8
:10310000F8D0019B03EB000804FB00F008F1010E6E
:1031100005EBCE11094B19440E9A02EB000B05EB9F
:10312000C8121A44029B03EB000C039B181A009769
:103130005B46C4E705B0BDE8F08F00BF480600203D
:1031400000B583B0082B04D0062B0CD003B05DF87B
:1031500004FB203A0A4B03EB0213009310230822CE
:10316000FFF77AFFF2E7203A02EB4202054B03EB4E
:103170004203009308230622FFF76EFFE6E700BF35
:1031800034D40008F8D100082DE9F0411646127831
:103190007AB1074688461D46002404FB05702B467D
:1031A000414600B2FFF7CCFF0134E4B2325D002AA1
:1031B000F3D1BDE8F08100002DE9F84F9DF82860BB
:1031C0005BB30746884691461D4600244FF0010B2D
:1031D000DFF850A004FB067000B22B1B9A1E012BD7
:1031E0001DD05B4603EB83035B00013AB2F1FF3F66
:1031F000F8D1B9FBF3F3AAFB0312D20802EB820267
:10320000A3EB420303F130023346D2B24146FFF74B
:1032100097FF0134E4B2A542DCD8BDE8F88F012362
:10322000E7E700BFCDCCCCCC83B27F2B16D88BB2D6
:103230003F2B13D80B460029B8BFCB1DDB10084A23
:1032400002EBC3124B4201F0070103F0070358BF22
:10325000594201238B40115C0B431354704700BF4C
:10326000480600202DE9F84F064688461546994243
:1032700041D01C4690424CD0904203DC0C4698460C
:1032800005461646444551DD644224B2C8F10008A3
:103290000FFA88F84FF00109A8EB0403721B934260
:1032A00047DC4346B0461E4623462C461D464FF09B
:1032B000000A1FFA88F2A3B2A9B2761AB6B24FEA90
:1032C000460B1FFA8BFB37B21646D21A12B2BF1A40
:1032D0007F00BFB29E1B5E4436B2B9F1000F31D001
:1032E000BAF1000F28D0594209B22846FFF79CFFD7
:1032F00044453BDB0BE0904201DC05461646414667
:103300002846FFF791FF01352DB2AE42F7DABDE84E
:10331000F88F994201DC0C46984621463046FFF76B
:1033200083FF013424B2A045F7DAF0E74FF000093B
:10333000B2E74FF0010ABCE7494209B22046FFF765
:1033400073FFD5E7BAF1000F04D021462846FFF7F6
:103350006BFFCDE729462046FFF766FFC8E76942C5
:1033600009B22046FFF760FFA045D0D0A1B24C1CA7
:1033700024B2002EB1BF5E4401352DB2F61936B22B
:10338000B9F1000F08D0BAF1000FE8D0C94309B273
:103390002846FFF749FFE7E7BAF1000F04D02146BE
:1033A0002846FFF741FFDFE729462046FFF73CFFAD
:1033B000DAE72DE9F04705460F4690461E469DF890
:1033C00020302BB1804440452BDA0E44894636E04C
:1033D00002EB000A504511DA044606F1FF39894430
:1033E0000FFA89F939462046FFF71EFF4946204665
:1033F000FFF71AFF013424B25445F3DB3E44B742D1
:103400000FDA08F1FF342C4424B239462846FFF77E
:103410000BFF39462046FFF707FF01373FB2B7429F
:10342000F3DBBDE8F08721462846FFF7FDFE0134B7
:1034300024B2B442F7DB01352DB24545F1DAB7428B
:10344000B8BF4C46EFDBF6E7B1B100B58E4600F1F0
:10345000FF3CE6444FF0FF300B4901E0F4450FD04C
:103460001CF8013F5840082240F300030B4083EA58
:103470005000013AF8D1F1E74FF0FF30C0437047F8
:10348000C0435DF804FB00BF2083B8ED074B00226A
:1034900083F82D2083F86D20197A054A1170598917
:1034A000044A11809A89044B1A807047500A002000
:1034B0000A04002008040020A004002010B50A4CD3
:1034C0006C220021204606F002FCA4F10803074A02
:1034D00044F8082C022244F8042C80221A72782224
:1034E00062803C22A28010BD580A0020464E4F4305
:1034F00000B59FB0FFF7E2FF742201A9134800F066
:10350000A3FA80B9124B019A9A420FD1029B022B67
:1035100011D1702101A8FFF797FF1D9B83420DD0A9
:10352000FFF7B4FF04E0FFF7B1FF01E0FFF7AEFFE4
:103530001FB05DF804FBFFF7A9FFF9E7742201A9AA
:10354000044806F0D8FCFFF7A1FFF1E700000608E9
:10355000464E4F43500A002008B5044B01221A7012
:1035600001F0FAFF024B186008BD00BF4C0A0020B2
:10357000480A0020154B1B7803B9704710B501F0BD
:10358000EBFF134B1B68C01AB0F57A6F00D210BD69
:103590000E4B00221A700F4C0F4B1B7823720F4BEF
:1035A0001B8863810E4B1B88A3810E4B2360022373
:1035B000636070212046FFF747FF206700F05CFA48
:1035C00074222146084800F081FAE0E74C0A002006
:1035D000480A0020500A00200A04002008040020A5
:1035E000A0040020464E4F430000060800487047E4
:1035F000500A002010B5044C3C21204603F07BFA11
:10360000236800225A6210BD400E002038B54021C8
:10361000244802F035FB0546041E18BF012405F0BE
:1036200059FB0346204A1278A24207D01E4A147062
:103630001E4A10601E4A107838BB38BD1B4A1268FB
:10364000821A132AF6D91B4A1278A242F2D0194ADA
:1036500014707DB9164A01211170174A1060174A7B
:1036600000211170144A12689B1AB3F5487F12D2D8
:103670000020E2E70E4B1B782BB10D4B00221A7095
:103680000E4B1B7863B10020D7E70C4A1278002A52
:10369000E8D00020D1E7094B01221A700220CCE7C4
:1036A0000120CAE700040240E80A0020E40A0020E2
:1036B000E00A0020E10A0020DC0A0020D90A0020EC
:1036C000094B1B68586A02B2084B93F9003033B1BA
:1036D000074B1B88C01A00B2054B1A807047034B7A
:1036E000012119700020F7E7400E0020D80A0020C1
:1036F000D60A002010B501F02FFF0446FFF7E0FFC7
:10370000564B93F90030002B77D0554A1268A21A15
:10371000282A40F393800023504A1370514A1380A3
:10372000514A137000286AD110BD4F4B93F90030F5
:10373000002B3BD04D4B1B68E31A072B38DD4A4B5F
:1037400000221A70474BB3F9003093421ADD012270
:10375000424B1A70424B1C60454B1B68E31A012B0D
:103760002CDD404BB3F90000002829DD0346013B66
:103770001BB2002BFBD13B4A13800028D4D03C4B1A
:103780001C60D1E702DA4FF0FF32E1E71046334B1D
:103790001A70344B1A80C7E702DA4FF0FF324AE062
:1037A00008462E4B19702F4B1980BDE70020BBE750
:1037B0000020B9E70020B7E70020B5E70020B3E715
:1037C0000028A8BF0020AFDA81B20A46531C9AB283
:1037D00013F4004FFAD14B1C99B21BB2002BCCBF93
:1037E00000220122C343002A08BF00230B441BB25E
:1037F00008BF0021013908B2BDE7002895D01A4B57
:1038000093F900303BB9184B01221A70174B1C601A
:10381000144B00221A80134A138803441BB21380EE
:10382000124A1268A21A072AC4DD0F4A0021117039
:103830008B42B1DD0122094B1A708BE700283FF45F
:1038400074AF0028CCBF01224FF0FF329342B3D1B6
:10385000044A1388034413807CE700BFD40A002085
:10386000D00A0020CE0A0020CC0A0020C80A00207E
:10387000C40A002050B110B50146064C7F222046F4
:1038800006F03FFA002384F87F3010BD014B002280
:103890001A707047EC0A002000487047EC0A0020BC
:1038A0002DE9F047C2B007460E4601F055FE054629
:1038B00000248DF80840DFF8A480DFF8A49021E010
:1038C000A4F18001802202AB1944184606F0E5F904
:1038D00000238DF8883080235C1CA4B202A89DF8D8
:1038E0000720C25400230355394606F01DFAC0B91B
:1038F000414602A806F018FAB8B9494602A806F0EF
:1039000013FA90B901F028FE401BB0421AD20DF113
:10391000070000F071F8824680B1FE2CD0D8234613
:10392000DAE702A8FFF7A6FF04E002A8FFF7A2FF6C
:103930004FF0000A504642B0BDE8F087052003F082
:10394000C0FDDFE72CB102A8FFF794FF4FF0000A9B
:10395000F0E70148F8E700BFC4CB000804CB00083B
:103960000CCB0008B0B170B50C461546064699B1AF
:1039700000F03AF83046FCF733FC0146304600F0E0
:1039800043F80221054800F03FF829462046FFF79A
:1039900087FF70BD002070470020FAE700CB0008C9
:1039A00008B5074B1B7803B108BD4FF400720549F9
:1039B000054800F0FFFA024B01221A70F4E700BF3D
:1039C0006C0B0020800B0020700B002008B5044B0E
:1039D0001B7803B908BD0146024800F0F1FAF9E787
:1039E0006C0B0020700B002008B5024800F011FBA2
:1039F00008BD00BF700B002008B50146014800F06B
:103A0000F4FA08BD700B002008B564238AB20146A1
:103A1000014803F030FA08BDE80E002051B10B1840
:103A20000AD2074A904209D9064883428CBF002037
:103A30000120704700207047002070470020704729
:103A4000FFFF05080000080879B170B50546144667
:103A50000E4662B11146FFF7E1FF50B122462946FA
:103A6000304606F048FA002070BD01207047012062
:103A7000FAE70220F8E7000010B586B000240094B1
:103A800001F0C2FE104BF322DA6001940223059389
:103A90000723039301230493694601A801F0B4FFAF
:103AA00050B94FF47A7001F0CDFE044640B901F0F0
:103AB000BFFE204606B010BD01F0BAFE0324F8E7B1
:103AC00001F0B6FE0324F4E7003C02402DE9F04F7C
:103AD00083B000293BD0054614460F46002A39D052
:103AE0001146FFF79BFF00283AD001F08DFE1E4BD8
:103AF000F322DA604FF0FF3B4FF0000ACDF804B03C
:103B00002646042C28BF04263246394601A806F072
:103B1000F2F9DDF80480424653462946022001F0BE
:103B2000C3FE814648B92B6898450BD1043537440C
:103B3000A41BE3D101F07CFE0EE001F079FE4FF012
:103B4000030909E001F074FE4FF0040904E04FF0AE
:103B5000010901E04FF00109484603B0BDE8F08FCC
:103B60004FF00209F8E700BF003C024000B583B007
:103B7000094D002408E02346224601A9286803F0E5
:103B80006AFD0A2003F09DFC00F068F9019010F036
:103B9000FF0FF0D1F5E700BF980D002070B582B09F
:103BA0001A4B186828B147F230530222012103F062
:103BB000DAFC0126164C002520E0FDF7D1FE9DF829
:103BC0000430042B08BF01262B462A4601A9206891
:103BD00003F083FD78B99DF80430002BF4D0ECE7B6
:103BE0002B462A4601A9206803F077FD0028F7D06C
:103BF000FEF7E4FD00260A2003F063FC002EEFD15F
:103C0000FFF764F82368002BDED1F4E7940D002061
:103C1000980D002008B501F0F9FB08BD70B58CB017
:103C20002B4B186850B14EF660230222114603F068
:103C30009AFC002844DB10F0020F41D000F06CFC2D
:103C4000044678B9224B1868B0B1042103F05EFC39
:103C500094B12022002101A806F039F81D4E1E4D16
:103C60001E4C17E01E491C4801F0B8FB184B1868A1
:103C70000028EED00C21E9E71A49174801F0AEFB05
:103C800003F01AFC3146284601F0A8FB42F21070FE
:103C900003F017FC09A800F061FC0028F2D0002313
:103CA0001A4609A9206803F0D6FC202101A800F0DB
:103CB000C1FC0028EAD001A9284601F08FFBE5E706
:103CC000034B18680028D7D000240421BEE700BFAA
:103CD000940D002048CB000828CB0008800D002060
:103CE00014CB000834CB000808B5184A2021102056
:103CF00003F06BFC164B1860164A0421102003F0E9
:103D000064FC154B1860154803F0E9FB144B186070
:103D1000144A0021144803F085FB144B1860144A20
:103D20000021144803F07EFB134B1860134A002156
:103D3000134803F077FB134B1860134A0021134814
:103D400003F070FB124B186008BD00BF24DA0008B6
:103D5000800D0020DCDA0008980D0020CCDA000885
:103D6000940D0020A8DA00086D3B0008900D00209B
:103D700084DA00089D3B00088C0D002060DA000802
:103D8000153C0008880D00203CDA00081D3C0008A6
:103D9000840D0020F0B58BB00024059406940794A0
:103DA0000894099401942A4B1A6B42F004021A6396
:103DB0001A6B02F004020192019A02941A6B42F00B
:103DC00080021A631A6B02F080020292029A039434
:103DD0001A6B42F001021A631A6B02F0010203929D
:103DE000039A04941A6B42F002021A631B6B03F0ED
:103DF00002030493049B174F01224FF400513846ED
:103E000001F044FF144D22460321284601F03EFFF5
:103E10004FF4005305931123069301260796089447
:103E200005A9384601F044FE03230593069607943E
:103E3000089405A9284601F03BFE4023059306940B
:103E4000079605A9284601F033FE0BB0F0BD00BF70
:103E500000380240000802400004024000B583B070
:103E6000FFF7D4FB01280FD0022810D0FFF742FC47
:103E7000034638B1002801DD02220AE043421BB2AA
:103E8000012206E0002204E00422012301E00322D3
:103E900002238DF804200020BDF8042062F30F00F7
:103EA0009BB263F31F4003B05DF804FB00B595B00F
:103EB0003022002108A805F00AFF00230393049391
:103EC00005930693079301931E4A116C41F08051AC
:103ED0001164126C02F080520192019A02931A4A04
:103EE000116841F440411160126802F440420292AC
:103EF000029A0222089201210B9110210C910E923C
:103F00000F930823109360231193129204231393A9
:103F100008A801F0C1FE88B90F230393022304937C
:103F2000002305934FF4805206920793032103A8C0
:103F300002F002F920B915B05DF804FB72B6FEE795
:103F400072B6FEE7003802400070004008B501F08C
:103F5000DDFAFFF7ABFFFFF71DFF00F0A7F900F058
:103F6000EBFD00F05BF8FEF7A7FFFFF743FBFFF761
:103F7000BFFAFFF73BFB007AFEF74AFFFEF78AFF26
:103F8000FEF750FF03F020FAFFF7AEFE03F02EFA23
:103F90000A24FEF713FC204601F0E4FAF9E708B51D
:103FA0000368B3F1804F00D008BD01F0C9FAFBE708
:103FB00072B6FEE70160426000238360C360704711
:103FC000836801334268B3FBF2FC02FB1C33C26816
:103FD0009A4208D010B482680468A154836001201A
:103FE0005DF8044B7047002070478268C3689A42AE
:103FF0000DD0C3680268D35C0B70C368013342689C
:10400000B3FBF2F102FB1133C360012070470020C3
:1040100070470023C36083607047000008B50E48F6
:104020000E4B03604FF48273436000238360C360D0
:10403000036143614FF4007282611022C261036226
:10404000436283620A23C36202F012FA00B908BD18
:10405000FFF7AEFFFBE700BF9C0D002000300140E2
:1040600000B589B000230393049305930693079347
:104070000268154B9A4202D009B05DF804FB00219A
:10408000019103F584335A6C42F480525A645A6C9D
:1040900002F480520192019A02911A6B42F00102DD
:1040A0001A631B6B03F001030293029BA02303938B
:1040B00002230493032306930523079303A90348CC
:1040C00001F0F6FCD8E700BF0030014000000240DC
:1040D00000B583B0002200920D4B596C41F4804131
:1040E0005964596C01F48041009100990192196C56
:1040F00041F0805119641B6C03F080530193019BC4
:104100000F216FF0010001F053FA03B05DF804FBDA
:104110000038024030B589B0044600230193224B99
:104120001A6C42F001021A641B6C03F00103019344
:10413000019B02A903A802F0D1F8069BD3B902F0B3
:10414000ADF8034619484FF08042026040F2E73272
:10415000C260174AA2FB03239B0C013B4360002370
:1041600003618360836102F033FC054630B1284669
:1041700009B030BD02F092F84300E3E70B4802F0CB
:10418000B3FA05460028F2D11C2001F047FA0F2CA3
:1041900001D90125EBE7002221461C2001F008FA95
:1041A000044B1C60E3E700BF00380240F40D002020
:1041B00083DE1B43A4040020FEE7FEE7FEE7FEE7E4
:1041C000FEE7704708B5024802F0CEFA08BD00BF0E
:1041D000F40D002008B5024802F032FF08BD00BF10
:1041E000E80E00200120704708B505F057FE1623A1
:1041F00003604FF0FF3008BD08B505F04FFE1623F1
:104200000360FEE770B5161E07DD0C468D19AFF38F
:10421000008004F8010BA542F9D1304670BD70B59D
:10422000161E07DD0C468D1914F8010BAFF3008044
:10423000A542F9D1304670BD4FF0FF3070474FF4C2
:1042400000534B60002070470120704700207047EA
:1042500008B503460C4A126852B10B4A1068034471
:104260000A4A0B49521A934206D8074A136008BDFE
:10427000054A08491160F0E705F010FE0C230360C1
:104280004FF0FF30F3E700BF3C0E0020000002209B
:1042900000040000D85B0020034AD2F8883043F4C1
:1042A0007003C2F88830704700ED00E000B58DB0B3
:1042B00000230493069308930A93019302931348EF
:1042C000134A02600122426083604FF6FF71C160B1
:1042D00003610F2141618361039205920791099265
:1042E0000B9103A902F0A0FB50B9002301930293A4
:1042F00001A9064802F05EFC28B90DB05DF804FB88
:10430000FFF756FEF1E7FFF753FEF6E7400E0020F9
:104310000000014000B589B0002303930493059386
:10432000069307930268154B9A4202D009B05DF8D4
:1043300004FB0021019103F59C335A6C42F0010209
:104340005A645A6C02F001020192019A02911A6BAE
:1043500042F001021A631B6B03F001030293029BFC
:104360004FF44073039302230493012305930793AF
:1043700003A9034801F09CFBD8E700BF00000140FF
:104380000000024008B5064B01221A70054B188048
:10439000054B188001F0E0F8044B186008BD00BF21
:1043A000E60E0020A0040020E40E0020E00E002015
:1043B0000023024A1370024A13807047E60E002061
:1043C000E40E002008B50F4B187800B908BD01F0C5
:1043D000C3F80D4B1B68C01A0C4BA3FB00308209BD
:1043E0000B4B1B88B3EB901F04D99B1A094A13800F
:1043F0000020EBE70023034A1370064A13800120D4
:10440000E4E700BFE60E0020E00E0020D34D62106E
:10441000A0040020E40E0020164B1B7843B330B5F7
:1044200087B004460D46144B1A88144BA3FB0213A5
:104430005B09C3EB0313A2EB83039BB23B2A11D9A5
:104440000E49A1FB021252090D4902A805F092FB88
:104450000623009302AB2A4621460220FDF750FCBA
:1044600007B030BD1A46074902A805F083FBEFE705
:10447000704700BFE60E0020E40E0020898888887F
:1044800040CC0008B4CB0008F0B585B00120FDF7A2
:1044900037FC082300931F4B142220210220FDF734
:1044A0002FFC00240094232376220F210520FEF701
:1044B00080FF2046FDF724FC02244FF49677212646
:1044C0007425384602F0FDFF33462A4610210620A7
:1044D000FEF782FDFEF7A6FC384602F0F2FF3346F7
:1044E0002A4610210620FEF777FDFEF79BFC013CD3
:1044F000E7D13224FDF778FA013800F0FF000328F5
:1045000003D9204602F0DDFFF4E7FDF729FA05B0F4
:10451000F0BD00BFBCCB000810B592B00C4B0093AF
:1045200008230C4A40210DEB030005F0EDFA40F69C
:10453000B832094902A8FFF715FA044610B9204617
:1045400012B010BD4FF4FA6002F0BBFFF7E700BFF6
:10455000E0CB0008C8CB0008F0CB0008002859D0F9
:10456000F0B58FB0054640F6B8322D492D48FFF71B
:10457000F9F908B90FB0F0BDFFF78EF900284BD05C
:10458000294905F0D1FB0346002847D00D305B7B5D
:10459000202B03D110F8013F202BFBD000230D93DB
:1045A0000C9307AB049308AB039309AB02930AABDC
:1045B00001930BAB00930CAB0DAA1C4905F0FCFA60
:1045C000072801D00020D5E703220DA9E81D05F03A
:1045D00098FB0024AC72079B2B80154E03273A46AC
:1045E00056F8041B0CA805F07AFB80B101340C2CA2
:1045F000F5D10020A8700B9BEB700A9B2B71099BD7
:104600006B71089BAB71003818BF0120B2E7601CCA
:10461000C0B2EFE7002070470020ABE70020A9E719
:10462000F0CB0008F4CB000804CC000814CC000840
:104630000CDB000870B58AB020B30C46064613297F
:1046400003D8002528460AB070BD07A8FFF786FFEB
:1046500005460028F6D09DF8223004939DF82130BD
:1046600003939DF8203002939DF81F3001939DF82D
:104670001E300093BDF81C30034A2146304605F039
:1046800043FADFE70025DDE72CCC00082DE9F04FE9
:1046900083B0DFF8ACB28E4F8E4E8F4B1B88BBF8C9
:1046A00000209A4231D0ABF800303A788B490A703A
:1046B000B6F904108A4801700AB1012933D03B2BA6
:1046C0004ED9884AA2FB031251090A46C1EB0111D7
:1046D000A3EB81039BB2002B48D18349834805F0AB
:1046E00049FA834B1B78834A12789A4243D0814A15
:1046F0001370814A128881490A80002B46D1804B71
:10470000804A07CA83E8070044E0744A1178704A77
:1047100012789142C7D1724A11786E4AB2F90420D8
:104720009142C0D1DDE73B2B0FD96E4AA2FB0312A9
:1047300051090A46C1EB0111A3EB81018BB253B9B8
:1047400071496A4805F016FACBE71A466F4967487F
:1047500005F010FAC5E76E49644805F00BFAC0E7AA
:104760001A466C49614805F005FABAE76A495F489C
:1047700005F000FAB5E76BB15F4A12885F49098816
:10478000914207D05B490B705C4B1A8063495C48CF
:1047900005F0F0F9624B554A1A61594A1A62614AAA
:1047A0001A633479032C18D8022C34D0032C37D058
:1047B000012C3AD14D48FBF713FDC3B25A4A125DA2
:1047C0009A420AD0584A135542490A6802EB041229
:1047D000537301230B74554A1370554B1B786BB1FF
:1047E0003C4B01221A745A74032159819A80DA8051
:1047F00000221A819A81DA814D4B1A70FFF7E2FD8F
:10480000C8B93B4B1B78CBB94A4B1B68002B00F057
:104810001D81484CCAE03A48FBF7E2FCC3B2CDE741
:104820004048FBF7DDFCC3B2C8E73D4B1868FBF717
:10483000D7FCC3B2C2E7FFF727FEE5E700F08CFE26
:104840003D4B1B68C31AF92BDED92B4B1A883B4B07
:104850001B889342D8D0394B1A80374B1860284CAC
:104860002E49204605F086F92D4B1C62194BB3F9F1
:104870000430022BC8D12046FBF7B2FC154B1A6856
:1048800082F82D0001221A74BEE7042B40F08E80BE
:10489000FDF766F8B6F90430032B00F28780DFE8F5
:1048A00003F002080F680A4B00221A7003B0BDE83B
:1048B000F08F074A1378B3FA83F35B09137075E03E
:1048C0000B4B1B78002B3DD0014B00221A706DE082
:1048D000DC0E002088040020A00400209D0400209D
:1048E0009C0400208988888880CC0008BC0E0020A9
:1048F000E60E002086040020E40E00208404002040
:104900009C0E0020ACCC000858CC00084CCC000811
:1049100064CC000874CC00088CCC00089CCC000847
:104920003404002014040020980E0020940E00206F
:1049300011040020980D0020900E00208E0E002003
:104940009E0400206E4B1888FFF71CFD6D4D6E4BCA
:104950001A886E49284605F00DF96D4B1D622846F0
:10496000FBF73EFC6B4B1A6882F82D0001221A748B
:10497000AAE7694B1B78CBB1FFF71AFD614B674A79
:1049800007CA83E80700624A13621846FBF728FC4F
:10499000604B1A6882F82D0001221A7406E0FCF7B9
:1049A000DFFF3B78002B81D000233B7000231A46A9
:1049B00001A9206802F091FE002847D19DF804303B
:1049C000032BECD03FF661AF5A1ED2B2012AEDD8CC
:1049D000022B0FBFBDF90650BDF806506D422DB237
:1049E000002DE3D0FCF7BCFF3B7823B1494BB3F972
:1049F0000430012B08D0F5813046FDF709F800237B
:104A0000F38101233374D1E73D4B1A88B2F5967FC9
:104A100006D2772A18D83B2A8CBF0A23052300E048
:104A20001E2303FB0523B3F5167FA8BF4FF41673AF
:104A3000052BB8BF05239A42B8D0314A1380384BB2
:104A40004FF6FF721A80B1E70F23EAE7FCF7A4FFE5
:104A5000344B1B78344A1278134306D1334A137807
:104A60000133DBB21370092B24D92A4BB3F9085058
:104A7000B3F90A80EB1C9845A8BF984625EAE5756E
:104A8000454510DCDFF88CA04FF00009DAF8004053
:104A900004EB0514224649464846FDF7A9F9607320
:104AA0000135A845F2DA00231E4A13701E4A13701E
:104AB0001E4A13701E4B1B7883B100F04DFD1D4B39
:104AC0001B68C21A132A9ABF1433181A012002F065
:104AD000F8FC00F041FD174B1860DEE50120FDF702
:104AE0000FF90C4C2046FDF70FFA2046FDF7B0FAFF
:104AF0002046FDF701F80020FDF702F9DDE700BFD1
:104B0000A00400209C0E0020E40E00209CCC000895
:104B10003404002088040020E60E0020ACCC0008FD
:104B20009E04002010040020940E00208C0E002013
:104B300040060020880E002008B50D480D4B03608C
:104B40004FF4E133436000238360C36003610C22B0
:104B500042618361C36102F05EF928B9012206490E
:104B6000034802F012FC08BDFFF722FAF6E700BF87
:104B7000E80E002000100140300F0020F0B589B091
:104B8000002303930493059306930793026803F1AC
:104B9000804303F588339A4201D009B0F0BD002468
:104BA000009403F594335A6C42F010025A645A6C24
:104BB00002F010020092009A01941A6B42F0010276
:104BC0001A631A6B02F001020192019A02941A6BA5
:104BD00042F002021A631B6B03F002030293029B72
:104BE0004FF40043039302270497032606960725F4
:104BF000079503A90A4800F05BFF08230393049775
:104C000005940696079503A9064800F051FF224631
:104C10000521252000F0CCFC252000F0FFFCBCE79E
:104C200000000240000402400268074B9A4200D094
:104C3000704710B5054C2078FEF7C8FE01222146CA
:104C4000034802F0A2FB10BD00100140300F00200D
:104C5000E80E002000284BD070B58AB00C460546FF
:104C6000FBF7BEFAA4B2C0F1100004EB80000823E9
:104C70002A46002100B2FEF787FA05F110063046F9
:104C8000FBF7AEFAA0EB800040302044062332460A
:104C9000122100B2FEF778FA95F92030009395F9C9
:104CA0002130144A202102A804F02EFF02A8FBF7AD
:104CB00097FAC0F1100004EB800008230DEB03020B
:104CC0001C2100B2FEF760FA95F82330009395F8A6
:104CD0002230094A202102A804F016FF04F10A003C
:104CE000062302AA2E2100B2FEF74EFA0AB070BDCA
:104CF000704700BF00CD000808CD000870B53E4CDD
:104D00004FF4B4720021204604F0E1FF05253B4B2F
:104D10001D700F223A49204604F0F3FF394E0F224E
:104D2000314604F1100004F0ECFF84F82050FD231C
:104D300084F82130232384F82230032384F823309D
:104D40000F22314904F1240004F0DBFF0F222F4928
:104D500004F1340004F0D5FF082384F84430022520
:104D600084F84550412384F8463084F847500F2298
:104D7000274904F1480004F0C4FF0F22254904F13B
:104D8000580004F0BEFF122384F868300C2384F826
:104D90006930552384F86A30042384F86B300F227D
:104DA0001D4904F16C0004F0ACFF0F221B4904F113
:104DB0007C0004F0A6FF102384F88C300A2384F8CA
:104DC0008D30462384F88E3084F88F500F2214499A
:104DD00004F1900004F095FF0F22314604F1A00089
:104DE00004F08FFF062384F8B0302D2384F8B2300E
:104DF000012384F8B33070BD340F0020310F002040
:104E00001CCD000824CD00082CCD000838CD0008AA
:104E100040CD00084CCD000854CD000860CD0008FE
:104E20006CCD00082DE9F04F2DED028B89B07A4B47
:104E30001B7843B100260396B24602960496059667
:104E40009FED768A90E0FFF759FFF3E7FCF788FDC6
:104E500009B0BDEC028BBDE8F08F6F4B1B78012BC6
:104E60001CD9721C92FBF3F103FB1122D3B2049301
:104E7000FCF776FD4FF0FF33039380239BB259423A
:104E800009B20596049E20E0BDF80830C3F1020285
:104E900092B2042A17D8002303930293FDF7FAFF76
:104EA0005D4B93F800A0BAF1000F40F0B2800623EA
:104EB0005B4A18210A20FEF767F9FDF7B3FF32209D
:104EC00002F0FFFA50E0594209B207EE901AF8EEEC
:104ED000E77A67EE887AFDEEE77A17EE902A12B24B
:104EE00022B90029D4BF4FF0FF32012213449CB2F3
:104EF0001BB20293FDF7CEFF474B1B78002B56D019
:104F0000039B002B56D14FF0010A06EBC60000218F
:104F1000444B03EB8000FFF79DFE3F4B93F800B03E
:104F2000BBF1000F1BD0CBF11004A4000334A4B2DA
:104F30000025A9464FF00408382720B2EBB2B3424F
:104F400006BF01230093CDF8009043464246394600
:104F5000FEF72FFA01350834A4B2AB45EDD1FDF7C9
:104F600061FF0A2002F0ADFAFCF73EFDC0B2C31E9D
:104F7000DBB2012B7FF66AAFBAF1000F84D10228B1
:104F80003FF46BAF012889D1234B1B78012B85D9C6
:104F9000F218013A92FBF3F103FB1122D3B204930E
:104FA000FCF7DEFC012303936FF07F0366E74FF00D
:104FB000010A7CE7049B03EBC3000299194B03EB46
:104FC0008000FFF747FE039BB3F1FF3F05D0039B33
:104FD000012B10D04FF0010A9FE7A4F18001059B3F
:104FE00003EBC30009B20F4B03EB8000FFF732FE67
:104FF0004FF0010A91E704F18001059B03EBC30325
:1050000009B2084800EB8300FFF724FE4FF0010AC5
:1050100083E74FF0000A78E7310F00209A99993E14
:1050200078CD0008340F002040B3844641B34AB322
:1050300003787BB310B500200DE000F1020E964519
:1050400001D3002010BD5C240C540844437070460A
:105050001CF8013F73B1222BEFD05C2BEDD00D2B50
:1050600012D00A2B12D000F1010E964510D20B542B
:105070007046EDE700230B540120E3E70020704762
:1050800000207047002070470020DBE70020D9E7B0
:105090000020D7E7002000230B540120704738B5CB
:1050A00005460C46FDF7F6FE2DB108232A460021E1
:1050B0000846FEF769F82CB108232246102100208B
:1050C000FEF762F8FDF7AEFE38BD000010B52649C8
:1050D0002648FFF7E4FF264B00221A70FEF760FC1B
:1050E00040F6B83223492448FEF73CFC60B34FF445
:1050F0007A712248FEF7D4FB10B11D4B01221A70C1
:105100001F491A48FFF7CBFF4FF47A721D491E481A
:10511000FEF728FC0446E0B11A4C4FF47A7221469F
:105120001A48FEF71FFC642002F0CBF94FF47A72A4
:1051300021461748FEF716FC044678B115490B487E
:10514000FFF7ADFF204610BD40F6B83002F0B9F9C8
:10515000CDE711490548FFF7A2FFF3E70F490348E0
:10516000FFF79DFFEEE700BF88CD000898CD00084F
:105170009C100020A0CD0008A8CD0008B0CD0008EC
:10518000BCCD0008F0CB0008C8CD0008D8CD000881
:10519000E0CD0008F8CD0008CCCD0008ECCD00082B
:1051A00030B5FBB051495248FFF779FFFEF71EFAC0
:1051B000002848D0844600F10D02002312F8011F98
:1051C00021B10133202BF9D14A4805E0013B1E2BC8
:1051D00000F28A800CF10E000CF12D02002312F86F
:1051E000011F21B10133402BF9D1434C04E0013BB5
:1051F0003E2B2BD80CF12E04412229A9FFF714FFD6
:10520000054628B3812208A92046FFF70DFF054671
:1052100028B308AB009329AB384A4FF480713AA801
:1052200004F072FC46F2A81235493AA8FEF79AFB40
:105230000546C8B133492E48FFF731FF4FF4FA70E5
:1052400002F03FF908E02B482B4CD5E72A4CD3E776
:105250002D492748FFF723FF28467BB030BD2B4957
:105260002348FFF71CFFF7E7FEF716FB0023039325
:105270000493059306938DF81C30044608B1037817
:1052800023B923491A48FFF70AFFE5E7214904F04B
:105290004BFD0346E0B10733184613F8012B202AD3
:1052A000FAD0092AF8D00A22002104F061FB431E3B
:1052B000032B0DD8DFE803F0121416021649102252
:1052C00003A804F01EFD03A91448FFF7E8FEC3E796
:1052D0001022214603A804F014FDF4E71049EEE77C
:1052E0001049ECE71049EAE7024875E740CE0008AC
:1052F00050CE00080CCE000800CE000878CE000882
:10530000F0CB0008ACCE000858CE000868CE0008EC
:10531000A0CE00088CCE000820CE000894CE000855
:1053200014CE000834CE00082CCE000810B5CAB048
:105330001D491E48FFF7B3FE1D4B01931D4B009303
:105340001D4B1E4AA02122A804F0DEFB4FF4FA6296
:105350001B4922A8FEF706FBD8B11A491348FFF7EC
:105360009EFE47F27D630093174B184A802102A8E6
:1053700004F0CAFB42F21072114902A8FEF7F2FAD9
:10538000044660B112490948FFF789FE20464AB039
:1053900010BD04460F490548FFF781FEF6E70E49A8
:1053A0000248FFF77CFEF1E7B8CE0008C4CE000843
:1053B00004CF000810CF0008CCCE0008D8CE0008DB
:1053C000F0CB000840CE000824CF000840CF0008F2
:1053D00064CF000818CF000858CF000800B5C3B04C
:1053E00003460091074A4FF4807102A804F08CFB39
:1053F00040F6B832044902A8FEF7B4FA43B05DF8AB
:1054000004FB00BF70CF0008F0CB000838B50324C0
:105410004FF4FA65FFF75AFE78BB284602F051F8C0
:10542000013CF7D11D491E48FFF739FE1D4B186896
:1054300010B1012102F06AF802F03EF81A4C1B4943
:105440002046FFF7CBFF322002F03BF818492046F8
:10545000FFF7C4FF134B186803210028EAD1EBE7DC
:10546000052441F28835FFF761FF0028E6D1284680
:1054700002F027F8013CF6D1D4E70E4B1B78002B45
:10548000EED1052441F28835FFF78AFE0028E7D1E6
:10549000284602F016F8013CF6D1C3E78CCF00088D
:1054A00050CE0008940D0020A8CF000898CF000827
:1054B000B0CF00089C100020DFF834D0FEF7ECFEDF
:1054C0000C480D490D4A002302E0D458C45004335F
:1054D000C4188C42F9D30A4A0A4C002301E0136035
:1054E0000432A242FBD304F0DFFCFEF72FFD70472D
:1054F00000000220000000202805002020DF000816
:1055000028050020D45B0020FEE7000008B50B4B07
:105510001A6842F400721A601A6842F480621A60D3
:105520001A6842F480721A60032000F02FF80F20EE
:10553000FEF7F0FDFEF7CCFD002008BD003C024068
:10554000034A1168034B1B780B441360704700BF7C
:10555000A0100020A2040020014B1868704700BF73
:10556000A010002038B50446FFF7F6FF0546B4F159
:10557000FF3F02D0044B1B781C44FFF7EDFF401B9C
:10558000A042FAD338BD00BFA20400200749CA6870
:10559000030203F4E06322F4E0621204120C1343EA
:1055A00043F0BF6343F40033CB60704700ED00E08D
:1055B00000B5184BDB68C3F30223C3F1070CBCF141
:1055C000040F28BF4FF0040C03F1040EBEF1060FC8
:1055D0008CBF033B00234FF0FF3E0EFA0CFC21EA88
:1055E0000C0199400EFA03FE22EA0E021143002834
:1055F00009DB0901C9B200F1604000F5614080F8A3
:1056000000135DF804FB00F00F000901C9B2024B62
:105610001954F6E700ED00E014ED00E0002807DB88
:10562000410900F01F0001238340024A42F8213063
:10563000704700BF00E100E070B50446866DFFF7DB
:105640008BFF94F83530DBB2022B06D080236365E4
:105650000120002384F8343070BD054622681368A9
:1056600023F0160313602268536923F0800353610B
:10567000236CCBB12268136823F0080313602268FF
:10568000136823F00103136023681B6813F0010FF4
:105690000ED0FFF761FF431B052BF5D9202363656F
:1056A000032084F83500D4E7A36C002BE2D1E6E7B1
:1056B000E26D3F239340B360012384F8353000202E
:1056C000C7E790F83530DBB2022B03D08023436567
:1056D00001207047052380F835300268136823F0F5
:1056E000010313600020704710B40A490C6924F4C8
:1056F00040740C610C6944F440740C610C6944F012
:1057000001040C610260BFF36F8F43605DF8044BCE
:10571000704700BF003C0240074B1A6922F44072F8
:105720001A611A6942F400721A611A6942F00102A0
:105730001A610160704700BF003C0240074B1A69C4
:1057400022F440721A611A6942F480721A611A696D
:1057500042F001021A610180704700BF003C024024
:10576000274BDB6813F0100F07D0264AD36943F0AC
:105770001003D361224B1022DA60214BDB6813F057
:10578000200F07D01F4AD36943F00803D3611C4B95
:105790002022DA601A4BDB6813F0400F07D0194A59
:1057A000D36943F00403D361154B4022DA60144BF4
:1057B000DB6813F0800F07D0124AD36943F002036D
:1057C000D3610F4B8022DA600D4BDB6813F4807FCE
:1057D00008D00C4AD36943F00103D361084B4FF45E
:1057E0008072DA60064BDB6813F0020F07D0054ABF
:1057F000D36943F02003D361014B0222DA60704782
:10580000003C0240A8040020074B1B69002B01DB71
:1058100000207047044B054A5A6002F188325A60F2
:105820001869C00F704700BF003C02402301674564
:10583000034A136943F0004313610020704700BF1F
:10584000003C024070B50446154B0022DA61FFF7B8
:1058500083FE0646134DEB6813F4803F0AD0B4F183
:10586000FF3FF8D0CCB1FFF777FE801BA042F2D902
:1058700003200DE00B4BDB6813F0010F02D0094B46
:105880000122DA60074BDB6813F4F97F01D10020B5
:1058900070BDFFF765FF0120FAE70320F8E700BFBE
:1058A000A8040020003C0240F8B515461F4A127EAD
:1058B000012A39D004460E461F461C4B01221A7697
:1058C0004CF25030FFF7BEFF90B9ACB1012C21D0A3
:1058D000022C24D02A463B463046FFF705FF4CF207
:1058E0005030FFF7AFFF124A136923F00103136131
:1058F0000E4B00221A76F8BDEDB20D4B1A6922F458
:1059000040721A611A691A611A6942F001021A6139
:105910003570E4E7A9B23046FFF710FFDFE729460C
:105920003046FFF7F9FEDAE70220E4E7A80400209A
:10593000003C0240074B1A6922F440721A611A694E
:1059400042F004021A611A6942EA002242F48032EB
:105950001A617047003C024001291DD002291ED067
:1059600000290CBF00214FF440710E4B1A6922F43C
:1059700040721A611A690A431A611A6922F0F80220
:105980001A611A6942EAC00040F0020018611A69FF
:1059900042F480321A6170474FF48071E5E74FF4AA
:1059A0000071E2E7003C0240164B1B6813F4007FD5
:1059B00010D0144B1A6822F400721A601A6842F46C
:1059C00000621A601A6822F400621A601A6842F4CF
:1059D00000721A600B4B1B6813F4806F10D0094BD8
:1059E0001A6822F480621A601A6842F480521A60BF
:1059F0001A6822F480521A601A6842F480621A60AF
:105A0000704700BF003C02402DE9F843264B1B7E47
:105A1000012B45D004460F46234B01221A764CF247
:105A20005030FFF70FFF8146002833D14FF0FF338E
:105A30003B602368012B1BD0A568E3682B449D4283
:105A400026D24CF25038194E217C2846FFF784FFAD
:105A50004046FFF7F7FE336923F0FA0333618146CE
:105A6000A8B90135E368A2681344AB42ECD80FE053
:105A70006168207CFFF75EFF4CF25030FFF7E2FEDA
:105A800081460A4A136923F00403136100E03D6074
:105A9000FFF78AFF044B00221A764846BDE8F883D8
:105AA0004FF00209F9E700BFA8040020003C0240C3
:105AB0002DE9F04F83B0002213464FF0010E03256D
:105AC0004FF00F086B4C4BE0876805FA02FA27EAA3
:105AD0000A0ACF68974047EA0A078760476827EABB
